:0200000460009A
:100000004643464200000156000000000103030081
:1000100000000000000000000000000000000000E0
:1000200000000000000000000000000000000000D0
:1000300000000000000000000000000000000000C0
:1000400000000000010408000000000000000000A3
:100050000000800000000000000000000000000020
:100060000000000000000000000000000000000090
:100070000000000000000000000000000000000080
:10008000EB04180A063204260000000000000000FD
:10009000050404240000000000000000000000002F
:1000A0000000000000000000000000000000000050
:1000B0000604000000000000000000000000000036
:1000C0000000000000000000000000000000000030
:1000D00020041808000000000000000000000000DC
:1000E0000000000000000000000000000000000010
:1000F0000000000000000000000000000000000000
:10010000D8041808000000000000000000000000F3
:100110000204180804200000000000000000000095
:1001200000000000000000000000000000000000CF
:10013000600400000000000000000000000000005B
:1001400000000000000000000000000000000000AF
:10015000000000000000000000000000000000009F
:10016000000000000000000000000000000000008F
:10017000000000000000000000000000000000007F
:10018000000000000000000000000000000000006F
:10019000000000000000000000000000000000005F
:1001A000000000000000000000000000000000004F
:1001B000000000000000000000000000000000003F
:1001C000000100000010000001000000000000001D
:1001D000000001000000000000000000000000001E
:1001E000000000000000000000000000000000000F
:1001F00000000000000000000000000000000000FF
:10020000FFFFFFFFFFFFFFFFFFFFFFFFFFFFFFFFFE
:10021000FFFFFFFFFFFFFFFFFFFFFFFFFFFFFFFFEE
:10100000D10020432914006000000000000000000F
:1010100020100060001000600078016000000000F7
:10102000000000600084010000000000FFFFFFFFDF
:10103000FFFFFFFFFFFFFFFFFFFFFFFFFFFFFFFFC0
:10104000FFFFFFFFFFFFFFFFFFFFFFFFFFFFFFFFB0
:10105000FFFFFFFFFFFFFFFFFFFFFFFFFFFFFFFFA0
:10106000FFFFFFFFFFFFFFFFFFFFFFFFFFFFFFFF90
:10140000884207D0904205D251F8043B40F8043B93
:101410008242F9D8704700BF884204D2002340F8C6
:10142000043B8142FBD87047664B4FF42A01664A61
:1014300066482DE9F0475A641864654A99639546F1
:10144000BFF34F8FBFF36F8F00F004F9614B08209B
:10145000614A6249C3F854016148FFF7D1FF614A0C
:1014600061496248FFF7CCFF61496248FFF7D4FF4A
:10147000614C62494FF470000023614A086044F8EF
:1014800023200133B02BFAD15E4B80215E4A03F852
:10149000011B9342FBD14F4D4FF080385B494FF019
:1014A000FF325B4B0026DFF8A4A1DFF8A4911C609B
:1014B000C5F80481C5F800A1C5F8F480C5F8F0901E
:1014C0000B68544F43F4E0230B60FB693D4923F064
:1014D0007F0343F04003FB617B6A23F07F0343F00B
:1014E00040037B628A66CA660A674A6700F0B8F8FA
:1014F000494A4A4B6320A2630321E363484A494BAC
:10150000106000F160401E6042F8041C00F6A170FB
:101510004549464AC3F8082D0B68454A43F0807395
:101520000B601368434943F00103136003680B60C9
:1015300000F0E6FAC5F804813F48C5F800A1C5F8F7
:10154000F480C5F8F09000F077FCF96E3B4A41F466
:1015500040513B4BF9661660C2F80861C2F8186149
:10156000C2F82861C2F838619A6BD20708D442F6F3
:101570001562344959651A659A6B42F001029A6303
:101580002F4A314C936843F00113936000F0DAF86E
:1015900000F016FC00F054FC00F0E4FA00F05CF8F7
:1015A0002368132BFCD900F06BFB2368B3F5967FFF
:1015B000FBD300F053F800F04FFC00F049FC30BFC3
:1015C000FDE700BF00C00A40BFAAAAAA070020008A
:1015D0000080062000800D40382A0100481F00606E
:1015E000000000000C2B0020844901600000002056
:1015F000409D00200C2B00200038002088ED00E0EA
:10160000C51B000000E400E0A0E400E024ED00E0E1
:1016100008ED00E000C00F40F12E0000F52E0000A4
:1016200014E000E018E000E0FCED00E00000202005
:10163000001000E0B42E00200046C3230040084004
:1016400000400D400000C056BC2E00201B1018208A
:101650000C0D1113704700BF704700BF704700BFEB
:10166000F0B5244A0020244B4FF0100C234C1126D7
:10167000DFF8C8E0122720600125C2F800C0C3F8D7
:1016800000E01660DFF8B8E01D4EC3F800E01D4929
:1016900017601E6041F015011B4F1C4E17601E6045
:1016A0001B4F1C4E17601E601B4F11601B4E1C49C8
:1016B0001F6016601B4F19601B4E1C4917601E608F
:1016C0001B4F11601B4E1C491F601660196025607E
:1016D000BFF34F8FBFF36F8FC3F8B001BFF34F8FCE
:1016E000BFF36F8F52F8883C43F4403342F8883C94
:1016F000F0BD00BF9CED00E0A0ED00E094ED00E047
:1017000009001000409D0020130020002100020766
:1017100014000020250008130900001016002020E6
:1017200027000B131700004033001013180000604F
:101730002F000B07190000702F000B133F00001043
:1017400025000803F0B58D4B18228D4E01208D49E0
:1017500048F20C7E8C4D4FF0FF378C4C83B0C3F8B1
:101760005C12C3F860520025C3F86412C3F86842E3
:101770004FF40054C3F86C628549C3F87062C3F833
:101780007462C3F87862834EDA661A675A679A679A
:10179000DA67C3F88020C3F88420C3F8882040F2B9
:1017A0000562C1F82C03C1F83003C1F83403C1F855
:1017B0003803C1F83C03C1F850032946B3697648A1
:1017C0001840764B03437648B361D6F8843043F033
:1017D0000C03C6F8843002260368334303600368B1
:1017E00003EA0E0E6F4B4EEA0303DFF8F0E10360ED
:1017F0006D4B4760DEF808703B406C4F43F0005380
:101800008360C36823F07803C360036A1F40684B9A
:101810003B43664F0362036A1F40654B3B43654F82
:1018200043628762C762DEF8B830634F23F03F033C
:1018300043F00103C0F8B830DEF8BC30DFF884E1D3
:1018400023F03F0343F00103C0F8BC300561046698
:101850000767C0F8802044664767C0F884200468A2
:10186000564B24F00204564A0460C0F818E0C661E2
:1018700043F8041B9342FBD1494B1A68194642F0C6
:1018800001021A600B68464A13F00103FAD14D4E6B
:10189000022540F2F56440F2664040F299414A4F19
:1018A000966142F20146D56140F23545C2F80042E8
:1018B00042F20124C2F810020120C2F8201211469F
:1018C000C2F8307207F15A47C2F8346207F513774D
:1018D000C2F840523D4E3E4DC2F85072C2F85462BA
:1018E000C2F86052C2F86442C2F8A030C2F8A43014
:1018F000C2F8B0004B692A4ADD07FBD5012300245A
:101900004FF4803011465361C2F8A040C2F8A400E1
:10191000C2F8B0304B69224ADC07FBD50123002412
:101920004FF4003011465361C2F8A040C2F8A40041
:10193000C2F8B0304B691A4AD807FBD501230024FE
:10194000244811465361C2F8A040C2F8A400C2F86E
:10195000B0304B69124ADB07FBD5D2F8003145F6AF
:101960000D5121209BB250618B4239D01A4B00227D
:101970001A605A609A60DA6003B0F0BD00801F40C0
:10198000F9700100F9B00100F9100100F90001003F
:1019900000841F4000C00F40FFFCFF1F000300A099
:1019A00000402A401200FFFFFF37F70000FFF07CE5
:1019B00040000080FF000F836300020000422A40C5
:1019C00000432A40F05AF05A9F041830063201268C
:1019D0003806180A040003000034002000802A4062
:1019E00000244FF4802001231146C2F8A040C2F821
:1019F000A400C2F8B0304B693B4ADF07FBD5012396
:101A00004FF40004002011465361C2F8A040C2F810
:101A1000A400C2F8B0304B69334ADE07FBD501237E
:101A20004FF400044FF4803011465361C2F8A040D7
:101A3000C2F8A400C2F8B0304B692B4ADD07FBD5D1
:101A400001234FF400044FF4003011465361C2F8F3
:101A5000A040C2F8A400C2F8B0304B69224ADC07AB
:101A6000FBD501234FF40004204811465361C2F80E
:101A7000A040C2F8A400C2F8B0304B691A4AD80797
:101A8000FBD5D2F8003145F60D5121209BB25061B3
:101A90008B4210D0164B08224FF400041A701549DF
:101AA0000020154A01230090521A1448224400F0E5
:101AB000BBF903B0F0BD4FF400044FF480210123C3
:101AC0001046C2F8A040C2F8A410C2F8B030436972
:101AD0000549DB07FBD50120054B10224FF0807430
:101AE00048611A70DBE700BF00402A400400030091
:101AF000C02E0020000000700000007000340020A4
:101B0000F0B4174A40274FF480314FF480564FF419
:101B100000554FF4404443F24200136913F0020FA2
:101B200006D0946151619061136913F0020FF8D1EE
:101B300013F4005F01D15561EFE713F4805F01D129
:101B40005661EAE7002BE8DA13F4803F01D0916197
:101B5000E3E75B0601D45761DFE7F0BC704700BFE5
:101B600000800D40394A03203949F3EE095A1368C1
:101B70009FED386A23F00103DFED376AF0B413609C
:101B800000241061D1F8E030344FD8B2C3F30B21F8
:101B90001B0D334E07EE100A05EE101A07EE903AB1
:101BA000304BB8EEC55A304DB8EEC77A3060F8EE1B
:101BB000E77A29602D4937EE466A2D4E77EEC57AD1
:101BC0002C4877EE666A2C4D37EE657A26EE276A4A
:101BD000C7ED007A66EEA76A176867EE277A83ED8D
:101BE000007AC6EE075A86EE876AC7EE876A35EE38
:101BF000857AFCEEC77A36EE057A17EE903ABCEE9F
:101C0000C77A47EA035376EE857A136017EE103AE7
:101C1000D2F81071FCEEE77A01EA0341394317EE7E
:101C2000903AC2F81011C3F30B03D2F810110B4312
:101C3000C2F81031136843F0020313603470C0F827
:101C400040510E4B0122F0BC1A60704780810D405C
:101C500000441F400000AA420000B442CC2E0020E5
:101C6000C42E0020C82E0020D02E00200000FF0F20
:101C700040E400E000380020A91D000008E100E079
:101C8000304B40F6617270B5C3F8202140F2044534
:101C900000F0E6F82C492D48D1F880202C4C42F079
:101CA00003022C4BC1F88020C0F860512268134019
:101CB0001BB9D0F8A8319A071AD0244B4FF0004135
:101CC000234A51631A46D3F8401141F00201C3F888
:101CD0004011D2F840319B07FBD44FF400301E492D
:101CE0001B4B4FF00042086019209A6300F0A0F8E7
:101CF0001A4D0022164B4FF08041144C0A2699636E
:101D000028461A601146C4F8A8614FF4207200F00A
:101D10009BF84FF4810640F243114FF48000104BC2
:101D2000104A2E602864C4F85851C4F84811C3F80A
:101D300004220D4A4FF4003101231160C4F84031F0
:101D400070BD00BF00800D4000C00F4000002E405D
:101D500000900D40001C1E008CE200E000500020AE
:101D600000380020551F00000CE100E008B50E4BC4
:101D70001B6E9B0700D4FBBE72B60C4B00200C4AB6
:101D8000C3F8400103F160430A49A3F55F231164DE
:101D90009D46BFF34F8F084A03F5E0430749126899
:101DA000184619609368984700441F4000002E4071
:101DB00000C00A40030020001C002000000012EBBD
:101DC000114B1249D86E0A4640F4403030B4D86600
:101DD00040F23765D86EA02440F44070D8664D6458
:101DE0008C64936C1B06FCD4094B40F23760A02135
:101DF0001A4658649964936C13F08003FBD1054A2A
:101E0000137030BC704700BF00C00F4000400C4052
:101E100000800C40F2300020F8B500BFF8BC08BCD0
:101E20009E467047000000005FF800F04532000059
:101E30005FF800F03D1200005FF800F0790F00003D
:101E40005FF800F00D1900005FF800F0FDDF000002
:101E50005FF800F0192F00005FF800F091D8000043
:101E60005FF800F0F526000001010000DD09000028
:101E70001603550053004200200053006500720015
:101E8000690061006C0000001803540065006500E3
:101E90006E00730079006400750069006E006F00C9
:101EA0000403090409024B00020100C032080B00C0
:101EB00002020201000904000001020201000524DF
:101EC0000010010524010101042402060524060076
:101ED000010705820310001009040100020A000036
:101EE00000070503024000000705840240000000CF
:101EF00009024B00020100C032080B00020202017D
:101F0000000904000001020201000524001001057F
:101F100024010101042402060524060001070582AC
:101F20000310000509040100020A00000007050370
:101F30000200020007058402000200000A060002F7
:081F4000EF0201400100010065
:101F48000000000000000000000000000000000089
:101F58000000000000000000000000000000000079
:101F68004FF08442F8B5936955691D400DD0244F50
:101F78000126956195FAA5F4B4FA84F457F824304B
:101F880006FA04F49847A543F4D11E4A93695569A3
:101F98001D400DD01C4F0126956195FAA5F4B4FAA1
:101FA80084F457F8243006FA04F49847A543F4D18A
:101FB800164A936955691D400DD0154F0126956144
:101FC80095FAA5F4B4FA84F457F8243006FA04F420
:101FD8009847A543F4D10F4A936955691D400ED01F
:101FE8000D4F0126956195FAA5F4B4FA84F457F8D3
:101FF800243006FA04F49847A543F4D1F8BDF8BD97
:102008008C1E0020004000420C1F0020008000426F
:102018008C1F002000C000420C20002010B5054C89
:10202800237833B9044B13B10448AFF3008001237C
:10203800237010BD0C2B002000000000342A010082
:10204800084B10B51BB108490848AFF30080084891
:10205800036803B910BD074B002BFBD0BDE8104047
:10206800184700BF00000000102B0020342A010090
:102078000C2B0020000000000D4B01210D4A93EDB0
:10208800006A90ED007B90ED0A4BB7EEC66A1160CE
:10209800B0EE475BA4EE067BA4EE465B83ED087BBF
:1020A80083ED047B83ED065B83ED025B704700BF25
:1020B800382B00202C2B002020B1114B1A6812B1AC
:1020C80000221A6070470F4B9FED0B7B93ED006A5F
:1020D800B0EE475BB7EEC66AA6EE475BA6EE077B97
:1020E80083ED065B83ED025B83ED087B83ED047B68
:1020F800704700BFAFF30080000000000000000040
:102108002C2B0020382B0020002800F0D98070B537
:102118007A4C04252DED048BB3EE049A2646B0EED6
:10212800088ADFED778A94F848300836012B96ED57
:10213800006B40F28B8072B6626C62B6636D94ED90
:10214800175AD31AD4ED1D7A94ED1B7A05EE903AFE
:10215800F4EEC57A2265F8EEE55A6265F1EE10FAFA
:1021680084ED1C7AC5EE894AB7EEE43AC4ED164A06
:1021780036EE436BB7EEC66BF1EE456A84ED1B6A2B
:1021880008D5F4EEE67AF1EE10FA03DD77EE867AFA
:10219800C4ED1D7AB4EEE75AF1EE10FA03D575EEE8
:1021A800487AC4ED1D7AF4EEE76AF1EE10FA03DD21
:1021B80078EE457AC4ED1D7A36EE477A94ED1A5AD0
:1021C800D4ED196AD4ED185A27EE057AE36C67EE58
:1021D800A67AC7EE286AE6EE257A77EEA67ABDEEED
:1021E800E77AC4ED1E7A17EE101A8B4228DB5B42A1
:1021F800994215DB002194F8280001F08FFA00219C
:1022080094F8290001F078F8002194F82A0001F0E8
:1022180073F8013D04F1540485D1BDEC048B70BD05
:1022280094F82800494201F079FA94F8290000212D
:1022380001F062F8012194F82A0001F05DF8E8E75E
:1022480094F8280001F06AFA0121D9E772B6236BE5
:10225800616B1A680868E16BA36B084202EA030223
:102268002FD094F8403003F00303002A42D143F002
:1022780008039A10013B84F840200D2B3FF65CAF11
:1022880001A252F823F000BFAD030000A50300002F
:102298009D030000A5030000F9010000950300005C
:1022A800AD030000AD03000095030000F901000034
:1022B800A50300009D030000A5030000AD03000076
:1022C800704794F8403003F00303002AD1D043F05C
:1022D8000403CEE7626C023A62642EE7626C023253
:1022E80062642AE7626C013A626426E7626C013232
:1022F800626422E743F00403B9E700BF382B0020EB
:102308000AD7A33C204B9A681368506819689368E9
:1023180010B404681940D06804421BD0137C03F041
:10232800030309B143F0040343F008039910013B88
:1023380011740D2B0BD8DFE803F021071B070A15D2
:102348002121150A071B07215369013B53615DF8D9
:10235800044B7047137C03F003030029E6D043F0D5
:102368000403E3E753695DF8044B023B536170478C
:1023780053695DF8044B02335361704753695DF844
:10238800044B013353617047D82D0020204BDA6885
:10239800136850681968936810B404681940D068C5
:1023A80004421BD0137C03F0030309B143F0040378
:1023B80043F008039910013B11740D2B0BD8DFE88B
:1023C80003F021071B070A152121150A071B0721FE
:1023D8005369013B53615DF8044B7047137C03F06C
:1023E80003030029E6D043F00403E3E753695DF8EB
:1023F800044B023B5361704753695DF8044B023349
:102408005361704753695DF8044B0133536170475A
:10241800D82D0020204B1A691368506819689368F2
:1024280010B404681940D06804421BD0137C03F030
:10243800030309B143F0040343F008039910013B77
:1024480011740D2B0BD8DFE803F021071B070A15C1
:102458002121150A071B07215369013B53615DF8C8
:10246800044B7047137C03F003030029E6D043F0C4
:102478000403E3E753695DF8044B023B536170477B
:1024880053695DF8044B02335361704753695DF833
:10249800044B013353617047D82D0020204B5A69F3
:1024A800136850681968936810B404681940D068B4
:1024B80004421BD0137C03F0030309B143F0040367
:1024C80043F008039910013B11740D2B0BD8DFE87A
:1024D80003F021071B070A152121150A071B0721ED
:1024E8005369013B53615DF8044B7047137C03F05B
:1024F80003030029E6D043F00403E3E753695DF8DA
:10250800044B023B5361704753695DF8044B023337
:102518005361704753695DF8044B01335361704749
:10252800D82D0020204B9A69136850681968936861
:1025380010B404681940D06804421BD0137C03F01F
:10254800030309B143F0040343F008039910013B66
:1025580011740D2B0BD8DFE803F021071B070A15B0
:102568002121150A071B07215369013B53615DF8B7
:10257800044B7047137C03F003030029E6D043F0B3
:102588000403E3E753695DF8044B023B536170476A
:1025980053695DF8044B02335361704753695DF822
:1025A800044B013353617047D82D0020204BDA6962
:1025B800136850681968936810B404681940D068A3
:1025C80004421BD0137C03F0030309B143F0040356
:1025D80043F008039910013B11740D2B0BD8DFE869
:1025E80003F021071B070A152121150A071B0721DC
:1025F8005369013B53615DF8044B7047137C03F04A
:1026080003030029E6D043F00403E3E753695DF8C8
:10261800044B023B5361704753695DF8044B023326
:102628005361704753695DF8044B01335361704738
:10263800D82D0020204B1A681368506819689368D1
:1026480010B404681940D06804421BD0137C03F00E
:10265800030309B143F0040343F008039910013B55
:1026680011740D2B0BD8DFE803F021071B070A159F
:102678002121150A071B07215369013B53615DF8A6
:10268800044B7047137C03F003030029E6D043F0A2
:102698000403E3E753695DF8044B023B5361704759
:1026A80053695DF8044B02335361704753695DF811
:1026B800044B013353617047D82D0020204B5A68D2
:1026C800136850681968936810B404681940D06892
:1026D80004421BD0137C03F0030309B143F0040345
:1026E80043F008039910013B11740D2B0BD8DFE858
:1026F80003F021071B070A152121150A071B0721CB
:102708005369013B53615DF8044B7047137C03F038
:1027180003030029E6D043F00403E3E753695DF8B7
:10272800044B023B5361704753695DF8044B023315
:102738005361704753695DF8044B01335361704727
:10274800D82D002000000000F0B54F4C89B00025BE
:1027580004F5A877012194F8280000F0D3FD9FED37
:102768004B0A94F8280001F03DF8012194F829005B
:1027780000F0C8FD012194F82A0000F0C3FDE36CC5
:10278800002194F828008B4272DB00F0C7FF00217B
:1027980094F8290000F0B0FD002194F82A0000F018
:1027A800ABFD72B60026666462B6E5665434E56130
:1027B80025626562BC42CDD1354A3146354B02AC03
:1027C800019201200093344A344B04F093F902A893
:1027D80004F03CF8324D334F0FCC24680FC52B461C
:1027E80032463146304843F8104903F03DFF2E4B3E
:1027F8002E4A2F492F4803F079FF02F015FD2E4B82
:1028080002462C492D4803F0B3FF3B682C4A01339C
:10281800254900922B483B6017A3D3E9002303F016
:10282800DFFF3B68284A01331F49009227483B6075
:1028380013A3D3E9002303F0D3FF3C68A5F11003E9
:1028480023490134234822463C6003F031FD1D49E9
:10285800204803F0EDFD1D491E4803F0E9FD1E4B1D
:102868001E4A164900961B4803F096FD09B0F0BDB4
:1028780000F054FF01218BE7002D3101000000001A
:1028880080B2E60E00000000382B0020000D0F4734
:10289800250F00001D0F0000C50E0000190F0000D5
:1028A800E02C0020782D0020882D002058170020CB
:1028B800000000207C2D002018000020302B002074
:1028C800C9010000282B002079010000842D002078
:1028D800902D0020F82C002039010000B02C002099
:1028E80008B54FF4FA6000F049FCBDE80840FFF76E
:1028F8002BBF00BF0000000010B5012000F03EFC17
:10290800054803A3D3E90023BDE8104003F0C4BD84
:102918000065CD1D00000000F82C00202DE9F84FBF
:10292800E04C0021E04B202220460D460A27DF4ECE
:1029380040F8083B0DF002FB01234FF0080E092276
:10294800184684F82B3084F828E0022184F82A20DD
:1029580084F8297084F82C5000F0D4FC2846022111
:10296800D34F00F0CFFCD34ADFF874E34FF4FA6397
:1029780010683168D7F810C0AEFB01E1D7F80080C5
:10298800D7F81CE0890CD7F80C90656403FB01F1BB
:10299800C4F830C0C4F838E0C4F83480C4F83C90B7
:1029A80013681B1A9942FBD8DCF80030D8F80020CD
:1029B8001EEA030F14BF0123002319EA020F02D0F5
:1029C80043F00203DBB2DFF81CA30422BA4D012056
:1029D800BA494FF0020884F840304FF00309C5F8AF
:1029E80004A000F0D1FC01230422B549002084F89A
:1029F8004830C5F800A000F0C7FC94F848304FF004
:102A08000B0CDFF8E4A24FF00D0E01330C22DFEDC2
:102A1800AD7A414684F848300023C4F860A04046A7
:102A2800DFF8C8A2DFF8B4B2E36623676367A36779
:102A380084F87CC084F87DE084F87E20C4F84C805B
:102A480084F87F80C4ED177AC4F868A04FF0000AB4
:102A580084F88090C4F864B000F054FC41464846BD
:102A680000F050FC934ADFF878E24FF4FA631068FC
:102A78003168D7F82090AEFB01E1D7F82CC0D7F821
:102A88003080890CD7F83CE0C4F8849003FB01F14E
:102A9800C4F88CC0C4F88880C4F890E0C4F898A042
:102AA80013681B1A9942FBD8D9F80030D8F80020CF
:102AB8001CEA030F14BF012300231EEA020F02D0F1
:102AC80043F00203DBB2DFF82892022004227E4999
:102AD80084F894308046C5F8089000F055FC01232E
:102AE80004227A49032084F89C30C5F80C9091465A
:102AF80000F04AFC94F89C30DFF8ECA14FF00E0E81
:102B080001334FF0120C0F220520DFED6E7A41469B
:102B180084F89C300023C4F8B4A0DFF8C0B1DFF813
:102B2800CCA1C4F8C030C4F8C430C4F8C830C4F864
:102B3800CC3084F8D0E084F8D1C084F8D220C4F82E
:102B4800A08084F8D300C4ED2C7AC4F8BCA04FF060
:102B5800000A84F8D490C4F8B8B000F0D3FB41461A
:102B6800484600F0CFFB534ADFF874E14FF4FA63AC
:102B780010683168D7F85090AEFB01E1D7F85CC017
:102B8800D7F84080890CD7F84CE0C4F8D89003FBFC
:102B980001F1C4F8E0C0C4F8DC80C4F8E4E0C4F88B
:102BA800ECA013681B1A9942FBD8D9F80030D8F862
:102BB80000201CEA030F14BF012300231EEA020FA2
:102BC80002D043F00203DBB2DFF828A10422404917
:102BD800052084F8E8304FF00208C5F814A000F08A
:102BE800D3FB042201233B494FF00709104684F820
:102BF800F030C5F810A000F0C7FB94F8F0304FF0A3
:102C0800130E354A4FF0170C01330620C4F804217F
:102C1800162284F8F0304146304B84F824E1C4F899
:102C28000C310023DFF8C4E0DFF8BCA084F825C12C
:102C3800C4F810E1C4F81431C4F81831C4F81C31D0
:102C4800C4F8203184F82621C4F8F48084F82701D8
:102C5800C4F808A184F8289100F054FB414648467E
:102C68004FF0000800F04EFB124ADFF874C04FF432
:102C7800FA6310683168D7F860E0ACFB0161FE6E5A
:102C8800C4F82CE1890CD7F870C0FF6F03FB01F181
:102C9800C4F83461C4F830C1C4F83871C4F840814C
:102CA8002AE000BF382B00203D0AD73E881E0020AE
:102CB80020000020041000E0D82D00207D0700002F
:102CC800F506000000009643C50300004D0400000F
:102CD8005D050000D504000000009643CDCC4C3FB4
:102CE80083DE1B43682B00206666663F0AD7A33C39
:102CF800BC2B0020102C002013681B1A9942FBD80B
:102D0800DEF80030DCF800201E4214BF0123002347
:102D1800174202D043F00203DBB2184E04221849CE
:102D2800062084F83C310227AE6100F02DFB012318
:102D380004221449072084F84431EE6100F024FB92
:102D480094F844210023104E0132104D10481149C7
:102D580084F84421C4F84871C4F85861C4F85C5137
:102D6800C4F86001C4F86411C4F86831C4F86C315F
:102D7800C4F87031C4F87431BDE8F88F642C0020B1
:102D8800E50500006D060000000096436666663F94
:102D9800CDCC4C3F0AD7A33C2DE9F84C0E46164F34
:102DA80000F052FADFF858E03C684FF0000BDEF80C
:102DB80000104FF0FF3C0546104AA04238BF0131D1
:102DC80000230C465946ECFB040182468B46CEF89C
:102DD80000400CF0A5FA094A3060594650460023D5
:102DE8000CF09EFA4FF47A733D60002003FB02F268
:102DF8007260BDE8F88C00BFD02D002040420F0063
:102E0800D42D00201048114AF0B440F2EE26046890
:102E18000F4D104F13783BB12B78DB0704D50368AF
:102E280039685B1A0E2B06D8036811781B1B29B169
:102E3800B3F5FA6FEED90120F0BC7047B342E9D977
:102E48000120F0BC704700BFBC2E0020082F0020D6
:102E5800483000208852002001207047084611465B
:102E680001F03EBF2DE9F843114E0F4611481946AF
:102E78001546002401F0EEFFDFF83890D6F8008000
:102E880006E03368D9F80820C8EB030393420AD256
:102E9800291B381901F026FE04440649A542F0D83A
:102EA8002046BDE8F883012320460B73BDE8F8836C
:102EB800BC2E0020C0200020964A974B90422DE956
:102EC800F043964CD3F814E09969E6681CD9944B02
:102ED800984240F21581934B40F22765924F034484
:102EE800924C1A0AA7FB0232D30903EB830303EBC4
:102EF800830202F2E243AB4228BF2B46A3F5487394
:102F0800A4FB0335ED0804E0894DA84294BF0625CB
:102F18000E25814A06F01F07D2F88030AF4243F0F1
:102F2800C003C2F880300AD27C4B26F01F061A462E
:102F38002E43DE601368002BFCDA06F01F071EF034
:102F4800007331D17B4C7C4AD4F810C014460CEA8B
:102F58000202A2420ABF4FF0C0534FF4805200222F
:102F68008EEA030414F0605F08D02EF0605E03F070
:102F78006053694C43EA0E0EC4F814E081EA020378
:102F880013F4405F08D0644B21F4405111431A46B2
:102F98009961936C1C07FCD44EF0007E5E4AC2F81F
:102FA80014E0936C9906FCD40121644C0A4601FB99
:102FB80002F300FB03F3A34209D8072A00F2958025
:102FC800013201FB02F300FB03F3A342F5D95C488D
:102FD8005C4C1844A4FB00031B0D6C2B00F28B8087
:102FE800352B00F28F80DFF8888136235648DFF8CA
:102FF80044C1564CDCF80090B0FBF2F009EA040436
:103008004445B0FBF1F00BD043F400534FF4805823
:103018006446CCF80080CCF800302368002BFCDA3A
:10302800DFF8F4C0013ADCF8103003F007039342EC
:1030380007D002F007026446CCF81020A36CDB032B
:10304800FCD4013989028EEA010313F4E05F0CD045
:10305800314B2EF4E05E01F4E0511A4641EA0E0EBF
:10306800C3F814E0936C9907FCD4394B39490344ED
:10307800DB09A1FB0331090B042928BF04214B1EDE
:103088001B028EEA030212F4407F07D02EF4407E22
:1030980003F44073204A43EA0E0353611E4B5C69F4
:1030A8001A4624F000745C61936C9B06FCD42A4B8E
:1030B8004FF0FF32294CBD42A3FB00E320604FEAEA
:1030C8009343274CB2FBF3F3B0FBF1F1254A21609F
:1030D800136008D2114B26F01F061A462E43DE60F5
:1030E8001368002BFCDABDE8F08304293FF66FAFC4
:1030F800013101225BE7DFF87C806C231A4876E710
:10310800122506E71948DFF8708000FB03F043EA50
:1031180008086CE700A4781F00C00F4000000840B2
:103128000046C32300BA3CDC23B24C001F85EB5198
:1031380000366E0100800D4040300080FFB19F26B0
:10314800808D5B00819F5E1600B29F267F300180D4
:103158007FD1F0089F10E50083DE1B43881E002006
:10316800841E0020B82E002000643F4D001BB700CD
:10317800362000806C20008000200080002857D076
:1031880001222DE9F04F85B083462A4C2A4D2B4E5B
:10319800DDE9028954E8003F2868336844E80021E3
:1031A8000029F7D1264FCDE902893A68D31A254A72
:1031B8004FF47A7E019712680127A3FB02234FF48C
:1031C8007A72984600238B4208BF42452CBFC246FC
:1031D800F2460EFB00AA54E8003F2A68316844E82A
:1031E8000073002BF7D101980068411A15484FF475
:1031F8007A7E00680EFB02F2A1FB00014FF47A70A0
:10320800CAEB020288460021994208BF40452CBFFC
:10321800434673461A44724507D3BBF1010B0AF5BE
:103228007A7AD8D105B0BDE8F08F01F031FED2E747
:10323800704700BF68330020BC2E0020B42E002049
:10324800041000E0B82E00202DE9F003124A0126F0
:10325800124D134C52E8003F2968206842E8006389
:10326800002BF7D10F4A16680F4F321A4FF000099A
:103278004FF47A783E684FF47A709945A2FB066756
:1032880008BFB8453C462CBF3C46044600FB0140FD
:10329800BDE8F003704700BF68330020BC2E002053
:1032A800B42E0020041000E0B82E002000010F4BBF
:1032B8001A181B5810B4D0685C68044205D059B17C
:1032C800C3F884005DF8044B7047936849B9084A0D
:1032D8005DF8044B1A607047C3F888005DF8044B2A
:1032E8007047044A5DF8044B1A60704720000020BC
:1032F8003830010038F00100362801D8FFF7D6BF72
:10330800704700BF36281CD800011A4A012902EB71
:103318000003105810B415D0042913D0DC68426893
:1033280022EA040242609A68E9B102291ED0032900
:103338005B685DF8044B0CBF0F49104911601522FA
:103348001A607047DA680129446842EA0402426058
:103358009A6808D040F6380111605B6815225DF85C
:10336800044B1A60704738211160F6E70449116070
:10337800F3E700BF200000203830010038000100CA
:1033880038F00100704700BF362823D80001F0B597
:103398004B4C4C4D2358AB4246D07AD94A4DAB42A0
:1033A80044D005F58045AB4240F08580474F204426
:1033B800474E484CD0F804E0C568C4F8B4624648A3
:1033C8004FF000540460042A62D8DFE802F048464F
:1033D80004314800704703265A696FEA050C052432
:1033E80095FAA5F00CEA0202B0FA80F05A61CEF81C
:1033F80000405A6802EA0C025A6047F82010DC695B
:103408000F2804EA0C04DC6148DC40000321DA6878
:10341800814006FA00F022EA01010843D8609D6164
:103428005A692A435A61F0BD2C4FC0E72C4FBEE7BA
:103438005A696FEA050C052495FAA5F002EA0C0210
:103448000226B0FA80F05A61CEF800405A680CEAB9
:1034580002025A6047F82010D1E70126BCE75C69F0
:103468006FEA050C052695FAA5F004EA0C04042A6F
:10347800B0FA80F05C61CEF800605C680CEA040485
:103488005C6047F8201018D1DA692A43DA61C6E788
:10349800F0BDB3F1844F0FD1124F88E712490322D0
:1034A8001C69014449008A4006FA01F124EA020233
:1034B80011431961B3E7F0BDF0BD00269FE700BFD7
:1034C8002000002000400042008000420C20002024
:1034D800210000000038002010E100E00C1F00204F
:1034E8008C1F00208C1E0020F0FFFF7FF0B501EB41
:1034F8004106294C012500EB461694F800C005FA50
:1035080001F1F4891FFA81FEB0F88851A4B24FEA9C
:103518000E1704FB0333ADB207F0F00723FA0CF3E0
:103528003D43A342A0F8885128BF2346012A22D050
:1035380015D3022A08D001F00F01B0F888319BB2E8
:103548001943A0F88811F0BD9BB201F00F01F38375
:10355800B0F880319BB21F43A0F88071EDE7E31A01
:1035680001F00F019BB27381B0F880319BB20B431D
:10357800A0F88031E1E79BB201F00F014FEA0E2E6F
:10358800F382B0F880310EF4706E9BB24EEA030EEF
:10359800A0F880E1D1E700BF8C2000202DE9F041A0
:1035A8004FEA410E384AB6EE007A4FF0010C0EEBA6
:1035B80001030CFA01F700EB4313BEB2DB89D2ED2D
:1035C800007A9DB2F8EE677A87EE800A30EE070A35
:1035D800FCEEC07A17EE903AB3F5803F4ED3002246
:1035E8004FF6FF7401E0062A03D85B080132A342B4
:1035F800F9D8B3F5803F4FEA021237D242F480621D
:1036080092B203F1FF3C1FFA8CFCB0F888813601B6
:1036180007F00F047144F6B21FFA88F700EB411166
:103628003E43A0F88861CA80A1F80EC04A8992B2C8
:1036380003FB02F2B2FBF5F292B24A81CA8A92B255
:1036480003FB02F2B2FBF5F292B2CA82CA8B92B2C3
:1036580003FB02F3B3FBF5F39BB2CB83B0F88831DD
:103668009BB21C43A0F88841BDE8F08142F4806217
:103678004FF6FE7C4FF6FF7392B2C6E7012B4FF46C
:103688008062BED80223C0E7841E0020224BB6EE1B
:10369800007AD3ED007AF8EE677A30B487EE800AC4
:1036A8004FF6FE7430EE070AFCEEC07A17EE903A39
:1036B800A3422AD9002201E0062A03D85B08013276
:1036C800A342F9D808324FF6FE7542F22604520298
:1036D800AB4202F4F05288BF2B46144300EB411171
:1036E8000D8ACA88ADB292B205FB03F0C2F101128D
:1036F8002A44B0FBF2F29B1A92B2C3F101039BB2C7
:10370800CB800A828C8130BC7047012B43F226049F
:1037180098BF0223E2E700BF841E002036280CD899
:10372800294AF8B5044600B212F8206002EB800579
:10373800012E03D0022E16D0F8BD70476A78C2F366
:103748000113032B3AD0214850F823008BB202F022
:103758000301AA78FFF7CAFE1D48EA7800EB0410B7
:1037680043681A60F8BD6E78C6F30113032B27D09F
:10377800184A52F823E006F00306174B89B20EEBFD
:10378800461793F800C07601FA880EEB06037644D4
:1037980092B2188AC2F1011212FA80F2501E00FB8E
:1037A80001F323FA0CF3984298BF931ED21A9BB2E6
:1037B800C2F1010292B2FA803382CDE70748C5E729
:1037C800DFF81CE0D7E700BF900300206C0400205E
:1037D80020000020780400208C20002000803E403B
:1037E80000801E40362809D800B2134B13F8202059
:1037F80003EB8003012A02D0022A0DD070475978C2
:10380800C1F30112032A13D00C4850F822009A7809
:1038180001F00301FFF7C2BE5978C1F30113032B6E
:1038280008D0074A52F8230001F00301FFF72EBF22
:103838000448ECE70448F7E7900300206C040020F4
:103848007804002000803E4000801E40A4484FF0CD
:103858000F0CA44B826F42F47F02F0B582670025FB
:10386800D0F880204FF470469F4C4FF4604E2946A4
:103878004FF4806714432A46C0F88040A3F88C614F
:1038880048F2B826A3F88EC1A3F89051B3F888017E
:1038980080B240F0F000A3F8880101EB4100914BA1
:1038A8000131002540011C4604290344A3F804E023
:1038B800DF805A841A865A805A81DE815A82DA82D7
:1038C8005A83DA83E9D1B4F888014FF00F0C874B9B
:1038D8004FF4704680B229464FF460472A4640EAC2
:1038E8000C004FF4806EA4F88801B4F8880180B207
:1038F80040F47060A4F88801A3F88C6148F2B826F7
:10390800A3F88EC1A3F89051B3F8880180B240F0B3
:10391800F000A3F8880101EB4100744B0131002548
:1039280040011C46042903449F80A3F806E05A84FA
:103938001A865A805A81DE815A82DA825A83DA8359
:10394800E9D1B4F888014FF00F0C694B4FF4704679
:1039580080B229464FF460472A4640EA0C004FF4EB
:10396800806EA4F88801B4F8880180B240F47060D1
:10397800A4F88801A3F88C6148F2B826A3F88EC190
:10398800A3F89051B3F8880180B240F0F000A3F892
:10399800880101EB4100564B0131002540011C46CE
:1039A800042903449F80A3F806E05A841A865A80A3
:1039B8005A81DE815A82DA825A83DA83E9D1B4F8ED
:1039C80088014FF00F0C4B4B4FF4704780B22946DB
:1039D8004FF460462A4640EA0C004FF4806EA4F883
:1039E8008801B4F8880180B240F47060A4F88801B6
:1039F800A3F88C7148F2B827A3F88EC1A3F89051A8
:103A0800B3F8880180B240F0F000A3F8880101EB18
:103A18004100384B013140011C46042903449E8073
:103A2800A3F806E05A841A865A805A81DF815A829E
:103A3800DA825A83DA83EAD1B4F888310F27002270
:103A480041F201069BB245F6C05E114643F22605D7
:103A58003B43A4F88831B4F888319BB243F47063CF
:103A6800A4F888315001244B01320344042A998177
:103A78005981DF819E82A3F806E0198019829D8111
:103A8800F0D100220F2741F2010645F6C055114634
:103A980043F226045001194B01320344042A998148
:103AA8005981DF819E82DD80198019829C81F1D144
:103AB80000220F2741F2010645F6C055114643F290
:103AC800260450010E4B01320344042A998159817E
:103AD800DF819E82DD80198019829C81F1D1F0BD41
:103AE80000C00F4000C03D40000003FC00003E4005
:103AF80000403E4000803E4000C01D4000001E4087
:103B080000401E4072B6EFF30583494D6B60EFF33A
:103B18000883484C2E4648484849494A2468006862
:103B2800096812682961AC60E8606A619A69454C65
:103B3800AA61DB69444FEB6100F0D8F885ED080A0B
:103B480001F0E0FA0B234FF0FF32686219462B6050
:103B58004A40202102F00103013904FB03F383EA00
:103B68005202F7D1BE4202D056F8041FF0E730499E
:103B78008A62BFF34F8F354B354A19601A60BFF31D
:103B88004F8FBFF36F8F334A0225334CD36E3349BF
:103B980043F440533248D3662560D36923F07F034A
:103BA80043F04003D3610B6883423ED82A4A002180
:103BB80001202C4E11604FF0FF33C2F808110C465B
:103BC800C2F800611546C2F808010746DFF8C0E0F0
:103BD800254E26482649274ACEF800303360036030
:103BE8000B60136001E000F055F9D5F80C211A4B71
:103BF800002AF8D00134C5F80C714F2CF3D91E4AAD
:103C080002241E484FF00041C0F840415163D3F8E8
:103C18000C2132B91A491B4A0A63D3F80C0100284F
:103C2800FAD0194B194A1A60FEE7FFF745F9BDE7C4
:103C380080FF272028ED00E02CED00E034ED00E0C7
:103C480038ED00E02083B8EDA4FF272070EF00E0F6
:103C5800A0FF272000C00F4000400840881E002019
:103C6800803DCD0B009F240084E100E088E100E066
:103C78008CE100E090E100E000900D4000002E4053
:103C880000800F40F100AD0B0CED00E00400FA05D8
:103C980080E100E0094A08B5136820B118440849D2
:103CA800884202D81060184608BD0BF0FDFC0C22B3
:103CB8004FF0FF330260184608BD00BF9020002077
:103CC80000002820002070474FF0FF30704700BFE9
:103CD8004FF4005300204B60704700BF012070472D
:103CE8004FF0FF30704700BFFFF70CBF12490B6859
:103CF800114A5B07FBD513681049C3F30B23104A1D
:103D080007EE903A0B6892ED006AB8EEE77A07EE94
:103D1800903A0C4AF8EE677A0B4BD2ED006A77EED0
:103D2800677A93ED007AB8EE477A67EE867A87EE7F
:103D3800A60A37EE400A704780810D40D02E002039
:103D4800C82E0020CC2E0020C42E0020836BF0B497
:103D58001BB1536843F40043536072B6446BDCB143
:103D6800144B2260D3F8B0410C421FD1124D2F687A
:103D780004E02C68E41BB4F5166F0BD2D3F840416D
:103D880044F48044C3F84041D3F8B861D3F84041C3
:103D98006404EED5314209D10023064C8260C36029
:103DA800D4F8B0311943C4F8B0110263426362B663
:103DB800F0BC704700002E40041000E070B50646C5
:103DC800006B90B10246002403E012680134012A16
:103DD8000CD0536813F08003F7D032632CB1B36B67
:103DE80005689847013C2846F9D170BD3363736371
:103DF800F4E700BFF0B5E1B9214C22490020224B7D
:103E080001224FF0011580260A601A46A1604E6013
:103E1800E060C3F8BC51D3F8B0411C4D44F0010434
:103E28008860C3F8B0412860D2F8B031002BFBD1CC
:103E3800F0BD0904164B144D0126114C41F08001C8
:103E480000221E60596000F5805CE26400F5005EA7
:103E5800A36400F54057D5F8B01100F580462A460E
:103E6800986041F48031C3F80CC0C3F810E05F617A
:103E78009E61C5F8B011D2F8B031002BFBD1BCE778
:103E8800005000202040002000002E40E82E002096
:103E9800004000202DE9F04FB94C83B0D4F844819C
:103EA80018F0010FC4F844815ED0D4F8AC31002B6F
:103EB80055D04FF0011BDFF8EC92B24E2546DA469A
:103EC800C4F8AC31B06AF26AD4F8403143F4005314
:103ED800C4F84031D4F840319F04F5D5D5F84031C5
:103EE80023F40053C5F84031C5F8B4A1D4F8B4316F
:103EF80013F00113FAD181B240F28167C9F800309A
:103F0800B94200F2AD80B1F5D06F80F0DE81B1F535
:103F1800817F00F0608100F2E880802900F04E8106
:103F2800822940F0DA8092B202F07F01072900F27C
:103F3800D48089009448954F0844016810063B7066
:103F48007B7040F10182CA0301D501233B70022135
:103F58008E48FFF74FFFD4F8AC31002BB0D1884A18
:103F6800D2F8BC31002B49D118F0400F18D0844B3F
:103F7800D3F8AC111A46C3F8AC11D3F8BC11C3F886
:103F8800BC11D2F8B0417E4B002CFAD14FF0FF3271
:103F9800C3F8B421D3F8843100F01EFD7C4B1C60BB
:103FA80018F0807F03D07B4B1B6803B1984718F04B
:103FB800007F03D0784B1B6803B1984718F0040FB3
:103FC80008D06F4BD3F8843113F4007345D0734B8A
:103FD80001221A706A4BD3F8482112060BD518F043
:103FE800800F08D06E490A782AB1013AD2B20A7015
:103FF800002A00F0428203B0BDE8F08F6949C2F898
:10400800BC310868034240F0E281614A15681D40EE
:10401800AAD02F0C0FD05B4E4FF0010997FAA7F4E6
:10402800B4FA84F406EBC41009FA04F44030FFF73C
:10403800C5FEA743F2D1ADB2002D95D0514E012750
:1040480095FAA5F4B4FA84F406EBC41007FA04F45C
:10405800FFF7B4FEA543F3D186E7504A1370B9E7DA
:1040680042F22107B94234D067D8B1F5086F00F0A1
:104078001E81B1F5106F30D1C0F307404A4A4B4951
:1040880010704B4F4B4A0193C5F8C871C5F8CC1155
:10409800C5F8D02100F0A2FC474A019B80210120ED
:1040A800B26451601060F364C5F8BCB1D5F8B011C2
:1040B800936041F48032C5F8B0213A4A1360D4F8CD
:1040C800B031002BFBD1D4F8AC31002B7FF4F8AE23
:1040D80045E7110C072900F03B81C4F8C0B1D4F8BA
:1040E800AC31002B7FF4ECAE39E740F20237B9422D
:1040F80000F0AD80B1F5A06FEFD12F4A80210127E4
:10410800F364B26417605160C5F8BCB1D5F8B0115A
:10411800936041F48033C5F8B031D4F8B031002B46
:10412800FBD1030C5B0643F08073C5F85431D4F817
:10413800AC31002B7FF4C4AE11E742F2212399423F
:1041480079D042F221339942C7D11B4B80220021FA
:104158000120B36418605A60F164C4F8BCB1D4F8A3
:10416800B021996042F48033C4F8B031D4F8B0314A
:10417800002BFBD1D4F8AC31002B7FF4A1AEEEE6D6
:1041880000002E4000500020C0012E40F82E0020D4
:10419800D82E0020D42E0020E02E0020E42E00206F
:1041A800EC2E0020E82E0020082F0020C800020076
:1041B8000200CC000200C80020400020B64A0221BC
:1041C800104613705370FFF715FED4F8AC31002B6E
:1041D8007FF476AEC3E692B202F07F03072B3FF678
:1041E8007CAF12F0800F4FEA8303AC4A4FF0000116
:1041F8004FF001001A44136814BF23F4803323F0EE
:10420800010313608022A64BF164B36418605A60FE
:10421800C4F8BCB1D4F8B021996042F48033C4F832
:10422800B031D4F8B031002BFBD1D4F8AC31002B2D
:104238007FF446AE93E692B2002A86D1994BC0F33A
:104248000740994A1968994B116018707DE792B236
:1042580002F07F03072B3FF640AF12F0800F4FEAC2
:1042680083038E4A4FF000014FF001001A4413688F
:1042780014BF43F4803343F0010313608022884B5A
:10428800F164B36418605A60C4F8BCB1D4F8B021C2
:10429800996042F48033C4F8B031D4F8B031002BBF
:1042A800FBD1D4F8AC31002B7FF40AAE57E6804A34
:1042B8000121794B127818461A70FFF79BFDD4F844
:1042C800AC31002B7FF4FCAD49E67A4B59680029E4
:1042D8003FF403AF000C1FFA82FE04E00C33596868
:1042E80000293FF4FAAE1F888742F7D15F887745E7
:1042F800F4D1070A032F00F0BA801B89120C9342ED
:1043080028BF1346B0F5007F00F0A280B0F5E06F3B
:1043180000F08B80684F1A460193384600F030FE53
:10432800019B27F01F021F44BFF34F8F63490A60A8
:1043380020329742FAD8BFF34F8FBFF36F8F5E4892
:104348001946FFF757FD06E6CB077FF500AEFCE5FB
:104358005B4F4FF0010EF3605A495B4B3860C3F86E
:1043680000E05960B3605949D5F8B0017A6001F5A9
:10437800805740EA0E02996001F5005E01F5405051
:1043880001F58041C5F8B021DF60C3F810E058613D
:104398009961D4F8B031002BFBD1414A012048F291
:1043A8008001F36410604FF48030B2645160C5F846
:1043B800BCB1D5F8B011936041EA0003C5F8B0313B
:1043C800C9F80000D4F8B031002BFBD1C3E53C4854
:1043D80042F22104002605880E60A54240687FF459
:1043E80014AE81B200297FF410AE3849384C03C9A5
:1043F8000D0C86282060A180A5717FF406AE72B6E8
:104408003448017841F004010170D2F848110806D7
:1044180006D441F080018020C2F84401C2F8481156
:1044280062B62D4A50211170EFE52C481A46224FEA
:1044380090F800E02A492B480193BEF1000F08BF0D
:104448000146384600F09CFD0722019B7A7068E718
:1044580022481A462349077821480193002F08BFAC
:104468000146154800F08CFD134F019B59E7120CCB
:104478000B78934228BF134648E716490A7802F09A
:10448800FB020A702AB9D3F8482122F08002C3F847
:10449800482110F065FA00BFF82E0020C0012E4018
:1044A80020400020BC2E00208852002048300020E8
:1044B800082F0020840400200000202070EF00E076
:1044C800F02E00208000070000400020002F002070
:1044D80080520020DC2E0020EC2E0020E42E00204C
:1044E800A41E0060F01E0060002AA0F102022DE95F
:1044F800F04714BF00274FF00057022A01D9BDE842
:10450800F0874FEAC01ADFF840900D4604460AEBE0
:10451800090600214022984630460BF00FFD012085
:1045280047EA05414AF80910C6F83880B060B8F182
:10453800000FE4D0034BA0401C6820431860BDE87E
:10454800F08700BFD82E002000500020002AA0F1DC
:1045580002022DE9F04714BF00274FF00057022A46
:1045680001D9BDE8F0874022C501DFF844908846AC
:104578001544002104461E4605EB090A50460BF077
:10458800DDFC012247EA084145F80910CAF83860FD
:10459800CAF80820002EE4D004F11000034B824032
:1045A800186802431A60BDE8F08700BFD82E0020C3
:1045B8000050002012048160C36142F08002F0B410
:1045C8004260012701F5805601F5005501F5405478
:1045D80001F580420760C660056144618261F0BCF4
:1045E800704700BF831E022B00D9704730B4064BBA
:1045F80000F1100401250A4603EBC01005FA04F186
:1046080030BCFFF7A3BB00BF40500020831E022B25
:1046180000D9704710B4054B01240A4604FA00F18A
:1046280003EBC0105DF8044BFFF790BB005000206F
:1046380040687047124A134BD2F8200220F07F409E
:10464800984210B584B002D800EB800040000E4CB0
:1046580001A90A2200F02EFD01A90023204611F825
:10466800012B01333AB10A2B20F8022FF7D1162378
:10467800237004B010BD5B00DBB2237004B010BD22
:1046880000441F407F969800A8200020F8B51449E0
:104698004FF40037134D034601EB4024124E134AE2
:1046A80005EB40152146176028463288FFF782FF40
:1046B800318824F01F032144BFF34F8F0C4A136045
:1046C80020339942FBD8BFF34F8FBFF36F8F03207E
:1046D8002946FFF79BFF074B4FF400321A60F8BDDD
:1046E80060002020202F00202E3000208CE100E0E8
:1046F8005CEF00E00CE100E0244A43682DE9F0415A
:10470800C3F30E431488C569E41A002C38DD204928
:10471800204A0B781278DBB21F48204E934207D00C
:1047280010F8038036F81870C7F50072944212D951
:10473800013300221A4F082B26F8154027F81520B8
:10474800184E94BFDAB213460A703268C55414443E
:104758003460BDE8F081144B07EB4820224627441B
:1047680003EB4521184400F00BFC0E4A284626F8B6
:10477800187013681C441460BDE8F041FFF786BF49
:104788002846BDE8F041FFF781BF00BF2E3000206A
:104798004430002020300020243000203030002019
:1047A8000C2F002040300020600020201E4B1A787B
:1047B8005AB902F0FF031D4A127832B12DE9F041CF
:1047C8001B4D2A8812B9BDE8F0817047194EC2F511
:1047D8000068194F31784246184C07EB411704EB33
:1047E800C12438462146FFF7E5FE08EB040224F011
:1047F8001F01BFF34F8F124B196020318A42FBD83B
:10480800BFF34F8FBFF36F8F04203946FFF7EAFEDF
:104818003378084A0133DBB2032B88BF00231370B7
:1048280000232B80BDE8F0811E2F0020082F0020D8
:10483800463000201F2F002060300020601020200C
:1048480070EF00E02DE9F04F85B00290009100294B
:1048580000F0AB800023564DDFF87481DFF860A1CB
:10486800544FDFF870B101930122534B2A701C7822
:10487800524AB8F8003002EB441923BB1E461C46C6
:104888004846FFF7D5FE10F080007ED0BFF34F8F6B
:1048980000229AF800304A492A7004B93E68002B71
:1048A8005AD13B689B1B782B79D89BF80030002B9A
:1048B80052D000F0EDFA0124B8F800302C70002B2B
:1048C800DED03D4A14781A46C3F50060E402009E23
:1048D8003C4920449642084442D30C44029900F0D3
:1048E8004FFB002321464FF400624846FFF762FE63
:1048F80024F01F0304F50064BFF34F8F324A13609E
:1049080020339C42FAD8BFF34F8FBFF36F8F042038
:104918004946FFF767FE284B274A1B780098013362
:104928002A49DBB2032B88BF002313700022B8F892
:104938000030A8F80020C01A00900198184401908F
:10494800029818440290C1F88420BFF34F8F0023C7
:104958002B70009B002B87D1019805B0BDE8F08F24
:10496800009C0393019B224602992344019300F083
:1049780007FB039B4FF04041144A00201B1B00908B
:10498800A8F80030C2F88410DFE74FF400630A4A41
:104998008AF8000014781A46A8F8003096E7012330
:1049A80001980B7005B0BDE8F08F0098D5E700BFFF
:1049B8001E2F0020BC2E00201F2F0020603000205A
:1049C800453000206010202070EF00E000002E40ED
:1049D80046300020082F0020704700BF314B2DE9DA
:1049E800F0411B78304F002B54D04FF40073DFF8A0
:1049F800EC803B80A8F80030002180222B480D462F
:104A08002B4E0BF09BFA2B4C2B4B29464FF4807204
:104A18002A4825702C461D800BF090FA35602B46ED
:104A280075602A46B560F5602549264E2648DFF8A8
:104A3800B0E00D7010210570022035607560B5601A
:104A4800F560CEF80050FFF781FDB8F800102A464F
:104A58001E4B0320FFF748FD2B463988012204200E
:104A6800FFF774FD20460134FFF710FE082CF9D13A
:104A7800174B4A2217480021174C0460C3F88410CA
:104A8800C3F88020D3F8482142F08072C3F8482147
:104A9800BDE8F0814023DFF844803B80A8F800306F
:104AA800AAE700BFE42E00201C2F00206030002061
:104AB800303000201F2F002046300020202F0020FB
:104AC800443000200C2F002020300020B92700009F
:104AD80000002E40D42E00206D2800002E3000202B
:104AE80040300020314B4FF400322DE9F04F1A606E
:104AF80083B02F4B89461C78002953D02D4BE4B244
:104B08001B789C4250D082460027DFF8C0B00134A1
:104B1800294BC7EB09085046092C0193274B28BF9E
:104B280000241D5D244B33F815E0254B0EEB452181
:104B380033F81560234BCEEB06061944B0453246D0
:104B4800374419D20EEB45214246194400F018FAB1
:104B5800019BDBF80010484633F81520C8EB01012B
:104B68009044CBF8001023F81580174B4FF400320F
:104B78001A6003B0BDE8F08F00F002FADBF80020FD
:104B8800E3B22846921BB244CBF80020084A1370BF
:104B9800FFF77CFDB94503D9064B1B789C42B6D17B
:104BA8003846E2E70846E0E70020DEE78CE100E06F
:104BB80020300020443000200C2F0020243000201A
:104BC80030300020600020200CE100E04030002060
:104BD8000B4B0C4A1B781278DBB293420DD0013391
:104BE80009480A4A092B0A4928BF0023C35C31F83F
:104BF800131002EB4323585C70474FF0FF307047A7
:104C08002030002044300020243000206000202084
:104C18000C2F0020014B1868704700BF403000205F
:104C28002DE9F84F154E164D34782B78E4B29C4296
:104C380021D0DFF85490DFF854B0DFF85480114FDA
:104C48000134082C5FFA84FA01D90024A24619F825
:104C58000410DBF8002038F81130084637F8111036
:104C68005B1AD31ACBF80030FFF710FD86F800A0C6
:104C78002B789C42E4D1BDE8F88F00BF203000209B
:104C8800443000200C2F0020243000204030002029
:104C98003030002000B583B001210DF10700FFF787
:104CA80021FF20B19DF8070003B05DF804FB4FF029
:104CB800FF30F9E7094B00B583B01B788DF8070082
:104CC80023B903F0FF0003B05DF804FB01210DF1E7
:104CD8000700FFF7B7FD03B05DF804FB082F0020BD
:104CE800044B1B7803F0FF020BB1FFF7ABBD104676
:104CF800704700BF082F00202DE9F0410024DFF89D
:104D0800448001230D4D27460D4E88F80030337836
:104D180028462035A34204F1010405D0FFF788FC9A
:104D2800030658BF07F50067042CF0D1BFF34F8F77
:104D38000023384688F80030BDE8F0816030002054
:104D48001F2F00201E2F00202DE9F843204B1B7831
:104D580013B1204D2A880AB9BDE8F883DFF88880A6
:104D6800C2F500691C4E4FF0010E98F800104A4633
:104D78001A4C002306EB4116194F04EBC1243046A8
:104D880087F800E02146FFF715FC09EB040224F040
:104D98001F01BFF34F8F134B196020318A42FBD894
:104DA800BFF34F8FBFF36F8F04203146FFF71AFC14
:104DB80098F800300C4A0133DBB2032B88BF00237C
:104DC800137000232B80BFF34F8F3B70BDE8F8832F
:104DD800082F00204630002060300020601020207E
:104DE8001E2F002070EF00E01F2F002070B5EFF39A
:104DF800108172B60C4C23688BB10C4E00255A6991
:104E080022607AB1956101B962B65D7718469B68F0
:104E18009847EFF3108172B62368002BEFD101B9E0
:104E280062B670BD3260EEE7E0300020E43000206A
:104E3800FFF7DCBF044A054B1168054A196013687F
:104E480001331360704700BF041000E0B42E002047
:104E5800BC2E00208160704708B5FDF741FDFDF7C5
:104E68004BFD00F015F8FAE7FFF7DABEFFF7B0BE22
:104E7800FFF710BFFFF7CEBEFFF766BFFFF73CBFD7
:104E880008461146FFF72CBF0846FFF713BF00BFBF
:104E98002DE9F843324E337893B1324F3A787AB9E4
:104EA8000122D9073A7037D49A0719D400225B0730
:104EB8003A7005D52C4B1A6812B1EFF305820AB186
:104EC800BDE8F883EFF3108072B61A681AB1274C60
:104ED800217800292FD00028F2D162B6BDE8F883E6
:104EE800DFF8948098F80020002ADFD00024DFF84B
:104EF8008C9005E0013498F80030E4B2A34213D94D
:104F080059F824502B6828461B6998470028F1D087
:104F18006B699B689847EDE7FFF77CFED0B9144BA7
:104F28001B781BB93378BFE73378BFE7337803F0D2
:104F3800FE033370B8E70126556926701D6065B118
:104F4800A96100B962B6002593681046557798475D
:104F58002570B5E700F066F9E1E7064B1D60F0E75C
:104F6800D0200020F1300020EC300020F03000206C
:104F7800461F0060E830002014310020F430002083
:104F8800844641EA000313F003036DD1403A41D34C
:104F980051F8043B40F8043B51F8043B40F8043B0B
:104FA80051F8043B40F8043B51F8043B40F8043BFB
:104FB80051F8043B40F8043B51F8043B40F8043BEB
:104FC80051F8043B40F8043B51F8043B40F8043BDB
:104FD80051F8043B40F8043B51F8043B40F8043BCB
:104FE80051F8043B40F8043B51F8043B40F8043BBB
:104FF80051F8043B40F8043B51F8043B40F8043BAB
:1050080051F8043B40F8043B51F8043B40F8043B9A
:10501800403ABDD2303211D351F8043B40F8043B3A
:1050280051F8043B40F8043B51F8043B40F8043B7A
:1050380051F8043B40F8043B103AEDD20C3205D34A
:1050480051F8043B40F8043B043AF9D2043208D042
:10505800D2071CBF11F8013B00F8013B01D30B88B4
:1050680003806046704700BF082A13D38B078DD092
:1050780010F003038AD0C3F10403D21ADB071CBF64
:1050880011F8013B00F8013B80D331F8023B20F8CE
:10509800023B7BE7043AD9D3013A11F8013B00F807
:1050A800013BF9D20B7803704B7843708B7883708F
:1050B80060467047F0B44E1E0025374600E00135C3
:1050C800B0FBF2F302FB130000F13704092800F1EA
:1050D8003000E4B298BFC4B2184607F8014F002B5D
:1050E800EDD14A1953704DB1013316F8014F1778B5
:1050F800E81A3770834202F80149F5DB0846F0BC2C
:10510800704700BF0A4B30B4586A1C46996A626AF5
:10511800A36A994208BF9042104619460CBF012560
:105128000025002DF3D0D90B30BC41EA424070472E
:1051380000400D4008B503684268BBB17AB1104B16
:10514800A3FB0213DB0803EB4303B2EB830303D097
:10515800D21A4260F02A02D90123184608BD0AF083
:10516800A3FA1C2200230260184608BD044BA3FBC7
:105178000213DB0803EB4303B2EB8303E8D1E9E74F
:10518800ABAAAAAA70B5044600283AD019B1B2FA57
:1051980082F56D09FDB1206808B1626832B90AF07C
:1051A80083FA162300220360104670BD1849A1FB3C
:1051B8000231C90801EB4101B2EB8101EFD1A368CB
:1051C8000BB10AF0BBFE0023012223601046636086
:1051D800A360E36070BD1E46049B80E80600C360C0
:1051E800FFF7A8FF02460028DED016B901221046B4
:1051F80070BD94E80500A66029460AF09FFE0122CA
:10520800D2E70AF051FA162322460360CCE700BF22
:10521800ABAAAAAA036810B514465B68984720464B
:1052280010BD00BF704700BF00F094B870B50646C7
:1052380058B10D4600F092F82C1806F118002146D6
:1052480000F08CF8401B204470BD054B1B22012147
:1052580004481B68DB680AF05FFA304670BD00BF7F
:10526800882500201805002070B50C4689B1054630
:1052780000F032F9436821462846DB68984700F079
:105288002BF9436804F118012846DB68BDE8704033
:105298001847054B1B22012104481B68DB680AF0EC
:1052A8003BFA204670BD00BF882500201805002065
:1052B80070B5044688B10D4600F00EF943682046E3
:1052C80029469B68984700F007F94368294604F186
:1052D80018009B68BDE870401847054B1B22012148
:1052E80004481B68DB680AF017FA204670BD00BF47
:1052F800882500201805002030B583B0012300213F
:1053080002AC04F8013D204600F0CCF80546014601
:10531800204600F0C7F8284403B030BD38B505462C
:1053280050B1002100F01AF80446014605F11800B2
:1053380000F014F8204438BD044B1B220121044816
:105348001B68DB680AF0E8F9284638BD8825002084
:105358001805002000487047D420002070B5B0B16F
:105368000E46082106F10804304600F021FC082109
:105378000519C6F10806284600F01AFC083008216D
:105388004419204600F014FC3044204470BD054BFD
:1053980004461B2201211B680348DB680AF0BCF99C
:1053A800204670BD882500201805002038B5044621
:1053B80088B10D4690ED000B084600F01BFB28460F
:1053C80094ED020B00F016FB284694ED040BBDE8A3
:1053D800384000F00FBB054B1B22012104481B6815
:1053E800DB680AF099F9204638BD00BF88250020FF
:1053F8001805002038B50C4671B1054600F044FB8D
:1054080004F10801284600F03FFB04F1100128468A
:10541800BDE8384000F038BB044B1B22012104488A
:105428001B68DB680AF078F9204638BD882500201B
:105438001805002010B50821002000F0B9FB00F184
:1054480008040821204600F0B3FB08300821044472
:10545800204600F0ADFB0830204410BD10B590B1D7
:105468000821002000F0A4FB00F1080408212046D0
:1054780000F09EFB083008210444204600F098FB09
:105488000830204410BD054B04461B2201211B682F
:105498000348DB680AF040F9204610BD8825002043
:1054A8001805002038B50D460123082105F1080428
:1054B80003702846C5F1080500F07AFB044408216A
:1054C800204600F075FB083008210444204600F00F
:1054D8006FFB2844204438BD00487047182100203D
:1054E80038B50D460121044600F018FB48B1A36801
:1054F80001211D70A26823690A4461750B44A260EA
:105508002361A07D80F0010038BD00BF38B50D468D
:105518000121044600F002FB60B1A2680120236962
:1055280012F8011B0344003118BF01212970A26041
:1055380023616075A07D80F0010038BD38B50D4647
:105548000121044600F0EAFA48B1A36801211D7060
:10555800A26823690A4461750B44A2602361A07D97
:1055680080F0010038BD00BF38B50D460121044662
:1055780000F0D4FA50B1A36801211B782B70A268FF
:1055880023690A4461750B44A2602361A07D80F001
:10559800010038BD30B583B00446ADF806100221CD
:1055A80000F00EFBA26803462569204602211A4432
:1055B8002B44A260236100F0B1FA90B1237D012B46
:1055C800A36813D09DF807109DF806201970A368EA
:1055D8005A700221A26823690A4461750B44A260CB
:1055E8002361A07D80F0010003B030BDBDF8062026
:1055F8001A80EEE770B5044682B00E460221ADF877
:10560800062000F0DDFAA2680346256920461A4400
:1056180002212B44A260236100F080FA88B1012E98
:10562800A36813D09DF807109DF806201970A36889
:105638005A700221A26823690A4461750B44A2606A
:105648002361A07D80F0010002B070BDBDF8062086
:105658001A80EEE770B504460D46022100F0B0FA54
:10566800A26803462669204602211A443344A260F0
:10567800236100F053FA80B1237D012BA36810D079
:105688005B782B70A3681B786B700221A268236972
:105698000A4461750B44A2602361A07D80F001007B
:1056A80070BD1B882B80F0E7F8B504460F46022131
:1056B800164600F085FAA5680346226920460221AD
:1056C8001D441344A560236100F028FA78B1012F26
:1056D800A36810D05B783370A3681B7873700221BD
:1056E800A26823690A4461750B44A2602361A07D06
:1056F80080F00100F8BD1B883380F0E730B583B037
:1057080004460191042100F05BFAA268034625696A
:10571800204604211A442B44A260236100F0FEF9BC
:10572800D0B1237D012BA3681BD09DF807109DF8ED
:1057380006201970A3689DF805105A70A3689DF893
:1057480004209970A368DA700421A26823690A44C6
:1057580061750B44A2602361A07D80F0010003B055
:1057680030BD01981860EFE770B5044682B00E4668
:105778000421019200F024FAA26803462569204614
:105788001A4404212B44A260236100F0C7F9C8B170
:10579800012EA3681BD09DF807109DF806201970EC
:1057A800A3689DF805105A70A3689DF804209970A5
:1057B800A368DA700421A26823690A4461750B445E
:1057C800A2602361A07D80F0010002B070BD019845
:1057D8001860EFE770B504460D46042100F0F0F9B3
:1057E800A26803462669204604211A443344A2606D
:1057F800236100F093F9B0B1237D012BA36816D083
:10580800DB782B70A3689B786B70A3685B78AB70B0
:10581800A3681B78EB700421A26823690A446175A8
:105828000B44A2602361A07D80F0010070BD1B685D
:105838002B60F0E730B5044683B00821CDE900239A
:1058480000F0BEF9A26803462569204608211A44DB
:105858002B44A260236100F061F950B3237D012B32
:105868002CD0A3689DF807109DF806201970A3682E
:105878009DF805105A70A3689DF804209970A368D4
:105888009DF80310DA70A3689DF802201971A368C7
:105898009DF801105A71A3689DF800209971A368BA
:1058A800DA710821A26823690A4461750B44A26071
:1058B8002361A07D80F0010003B030BD6B46A26873
:1058C80003CB10605160ECE730B583B00446ADF807
:1058D8000610022100F074F9A268034625692046E3
:1058E80002211A442B44A260236100F017F990B1F9
:1058F800237D012BA36813D09DF807109DF806207F
:105908001970A3685A700221A26823690A44617554
:105918000B44A2602361A07D80F0010003B030BD7C
:10592800BDF806201A80EEE730B583B00446019131
:10593800042100F045F9A2680346256920460421A0
:105948001A442B44A260236100F0E8F8D0B1237D0B
:10595800012BA3681BD09DF807109DF8062019702D
:10596800A3689DF805105A70A3689DF804209970E3
:10597800A368DA700421A26823690A4461750B449C
:10598800A2602361A07D80F0010003B030BD0198C2
:105998001860EFE770B504460D46042100F010F9D1
:1059A800A26803462669204604211A443344A260AB
:1059B800236100F0B3F8B0B1237D012BA36816D0A2
:1059C800DB782B70A3689B786B70A3685B78AB70EF
:1059D800A3681B78EB700421A26823690A446175E7
:1059E8000B44A2602361A07D80F0010070BD1B689C
:1059F8002B60F0E730B5044683B008218DED000B2D
:105A080000F0DEF8A26803462569204608211A44FA
:105A18002B44A260236100F081F850B3237D012B51
:105A28002CD0A3689DF807109DF806201970A3686C
:105A38009DF805105A70A3689DF804209970A36812
:105A48009DF80310DA70A3689DF802201971A36805
:105A58009DF801105A71A3689DF800209971A368F8
:105A6800DA710821A26823690A4461750B44A260AF
:105A78002361A07D80F0010003B030BD6B46A268B1
:105A880003CB10605160ECE770B504460D46082161
:105A980000F096F8A26803462669204608211A44B1
:105AA8003344A260236100F039F810B3237D012B41
:105AB800A36822D0DB792B70A3689B796B70A368ED
:105AC8005B79AB70A3681B79EB70A368DB782B71EB
:105AD800A3689B786B71A3685B78AB71A3681B782C
:105AE800EB710821A26823690A4461750B44A2601E
:105AF8002361A07D80F0010070BD1A685B682A6090
:105B08006B60EEE7837D3BB9826843685018834237
:105B180034BF00200120704700207047827D9AB969
:105B280038B58568446829448C420AD2836904469A
:105B38006BB1C169984780F00102D2B2A0751046D6
:105B480038BD0122104638BD00221046704701209A
:105B5800F4E700BF8161C261704700BFF0B4049CE4
:105B68000A449DF814600F19E5180024067587602B
:105B78000561447584758461C461C36080E806006A
:105B8800F0BC704730B583B00124069D01940095A0
:105B9800FFF7E4FF03B030BD10B5002482B00094D5
:105BA800FFF7F0FF02B010BD0023FFF7F5BF00BFFD
:105BB800B0FBF1F303FB1103481EC91A08407047F4
:105BC800437D8B420BD202694B1EC068121AB2FB8E
:105BD800F1F001FB1022891A01EA03007047002046
:105BE800704700BF38B504460D46FFF7E9FFA168C6
:105BF800236962680344084465759042A060236184
:105C080088BFA26038BD00BF82680068101A70475C
:105C180042688068101A704738B5847DB4B90D465B
:105C28008168436804460A44934206D22DB18369C9
:105C380053B1C1699847A07540B92046FFF7E8FFFE
:105C4800A84228BF284638BD01238375002038BDE7
:105C580038B504460D46FFF755FF38B110E0A36884
:105C68002D1A226903441044A360206101222946A9
:105C78002046FFF7D1FF0028F1D10123637538BD15
:105C8800A36822692B441544A36001232561637529
:105C980038BD00BF0346C0B1C1B190F8380088B123
:105CA80093F8390070B9024610B406E093F87840CA
:105CB800403344B193F839402CB901329142F5D1BF
:105CC8005DF8044B70472046FAE77047084670476E
:105CD800037830B504468DB0082B54D8DFE803F0BC
:105CE80005050B26260E0E0E0B000B68426B53F8AB
:105CF8002230002B31D100200DB030BD0B6A426B31
:105D080053F82230002BF6D0826800F11001406869
:105D180001F0C4FE05460028EDD040F25923984210
:105D28002DD000F089FE28460DB030BD8B69426B3E
:105D380053F82230002BDED0826800F11001406851
:105D480000F006FF04460028D5D040F2F51398422B
:105D5800D2D000F071FE2046CEE7816800236A4663
:105D6800406802F00FF805460028C4D040F29113AD
:105D78009842D6D10023284684F83930D4E7002346
:105D880084F83930B8E70120B6E700BF002800F0F2
:105D9800AF8081682DE9F043064685B04068002948
:105DA80000F02F8190F83830002B00F02C8100246F
:105DB80005460127A0462B78082B00F22881DFE84A
:105DC80003F08F8F77707069696905006A6BF369F2
:105DD80053F822300BB185F839704FF000090134BF
:105DE8008C4205D200EB841595F83830002BE2D1AF
:105DF800336F726F984700287CD0B368002B79D036
:105E0800706890F83830002B74D006F1140700251C
:105E180040F2911805E0746804EB851090F838207A
:105E28007AB139460135FFF753FF034610B14045B3
:105E380040F0EB80B168A942EDD8002900F0E58078
:105E4800746894F83820002A00F0DF8000273D4667
:105E58000FE094F83900002840F09F8001378F4206
:105E680080F0BD80746804EB871494F8380000282B
:105E780041D06378002BECD0012B40F0A780237829
:105E8800082B00F2C480DFE803F07E774D426E589D
:105E9800585855006A6B736B53F82230002B9AD10F
:105EA8009BE76A6BF36A53F82230002B93D194E78F
:105EB8006A6B736A53F82230002B8ED00DF10F01F4
:105EC80068688DF80F8002F0E3FA8146B0B99DF852
:105ED8000F30002B7DD085F83970B16870687CE789
:105EE8006A6B736953F82230002B7FF474AF74E740
:105EF8000B207047484605B0BDE8F08300F09CFDD4
:105F080040F291139945F5D1B168706867E7236B42
:105F1800A068984794F83930B168002B9ED084F86F
:105F280039509BE7606802F035FAB8B994F839300F
:105F3800B168F2E7236B9847F8E7062B59D0072B8F
:105F48004FD0236B04F11008A16AA0689847414616
:105F5800A26A606801F0DCFD0028E7D0019000F03B
:105F68006BFD0198C7E7236B04F11001A0689847FF
:105F780094F83930B168D0E794F83900236BE16AB6
:105F88000028F4D0F2E794F839000028BFD1236B39
:105F9800984794F83930B168BFE72378082B36D88A
:105FA80001A252F823F000BFCF3F00003D4000009F
:105FB800E53F0000CF3F000027400000FB3F000006
:105FC800FB3F0000FB3F0000F53F000094F839302C
:105FD800A3E700F031FD012005B0BDE8F083002003
:105FE80089E704F12801A06804F110080EC9984750
:105FF800ADE704F11008236BA26A4146A0689847F0
:10600800A5E78946F4E69946F2E6184673E70120C3
:1060180071E700BF002800F0DB8081682DE9F04FB0
:10602800064685B04068002900F0398190F838307C
:10603800002B00F036810024054601270246A046C1
:106048002B78082B00F22F81DFE803F08C8C726B21
:106058006B6464640500686BF36953F820300BB116
:1060680085F839704FF0000901348C4205D202EBF3
:10607800841595F83830002BE2D11046336F726FD3
:106088009847002800F0A780B368002B00F0A38091
:10609800706890F83830002B00F09D80002506F1DC
:1060A800140940F2911840F2592BAA464F4610E0C5
:1060B80094F83900002871D10135B368AB4240F239
:1060C800D98009F140097068484490F83830002BAD
:1060D80060D039464FEA8519FFF7FAFD002818BF46
:1060E8004045034601D0584554D1736813EB090461
:1060F8004FD06278002ADBD0012A47D113F8093043
:10610800082B00F2D080DFE803F0A59E96358E7448
:1061180074743F00686B736B53F82030002B9FD169
:10612800A0E7686BF36A53F82030002B98D199E701
:10613800686B736A53F82030002B93D00DF10F0170
:1061480068688DF80F8002F0A3F98146002847D1CE
:106158009DF80F30002B00F0868085F83970B16803
:1061680072687FE7686B736953F82030002B7FF4FF
:1061780077AF77E7236BA068984794F83930002BFE
:106188009AD084F839A097E7236B984794F8393068
:10619800F5E70B23184605B0BDE8F08F13F8093072
:1061A800082B00F2808001A252F823F0354200004B
:1061B8000B430000F742000035420000E7420000B0
:1061C800B3420000B3420000B3420000494200005D
:1061D8000B23184670474B46184605B0BDE8F08FAC
:1061E80000F02AFC40F291139945F4D1B168726825
:1061F8003AE7062B49D0072B3ED104F11003E26A97
:10620800A16A0193A068236B9847019B1946A26A6B
:10621800606801F07DFC0028B8D0019000F00CFC0B
:1062280001980346B6E7236B04F11001A06898476C
:1062380094F83930A3E7606802F0ACF80028ECD194
:1062480094F839309BE794F83900236BE16A002809
:10625800EDD0EBE794F8390000288BD1236B9847F1
:1062680094F839308BE700F0E7FB0123184605B0B6
:10627800BDE8F08F00238DE704F11003226BA16ABB
:10628800A06801939047019BC0E704F11003A26A3C
:10629800A06819460193236B9847019BB6E7894686
:1062A800ECE69946EAE6012374E700BF0000000027
:1062B800B0B12DE9F043B1FA81F4AFB064095CB92B
:1062C80016460546184698460F4600F0CDFAB6FA27
:1062D80086F35B09834205D30B202FB0BDE8F0831A
:1062E8000B20704780222A490EA8FEF749FE0EA906
:1062F80080222846FEF744FE2F606F466846AE604F
:10630800EC6002F067FA05F1140ED8F800900FCF90
:10631800AEE80F000FCFAEE80F000FCFAEE80F00CA
:1063280019A3D3E900233F68B001D8F81010CEF8BC
:106338000070C5F81080C5E91823C8476860F8B12F
:106348000EB908E0686800EB84100134314600F0AB
:1063580077F9A642F6D105F1480000F063F90D4A35
:10636800002368682A676B670028B6D02869002868
:10637800B3D0A8680028B0D0184685F87830ACE7C4
:106388000A20AAE7AFF3008000CA9A3B0000000089
:1063980080050020553D0000002A18BF002B2DE97C
:1063A800F0410CBF012400249DF81860002908BFA3
:1063B80044F0010454B9B0FA80F4640934B9C768E8
:1063C8008568AF4205D30120BDE8F0810B20BDE808
:1063D800F0810546BF0140684FF0010E05F1140831
:1063E80000EB070CC4554046CCF80410EF68696808
:1063F80001EB87110B63EF686B688A6007EB0E028D
:1064080003EB87135E70DC6283F838E0EA6002F021
:10641800F3F928B9AB6C00200133AB64BDE8F08117
:10642800404602F0EFF90028F4D0BDE8F08100BF43
:1064380069B3F8B5B0FA80F35B0953BBC2688468E6
:10644800A24201D30120F8BD04469201406802250A
:1064580001278618855404F114057160E1682846FF
:106468006268CE1902EB81125370D36282F83870D9
:10647800E66002F0C1F920B9E36C00200133E3645F
:10648800F8BD284602F0BEF90028F5D0F8BD0B206B
:1064980070470B20F8BD00BF002879D02DE9F047E0
:1064A80004469AB0006816461F4600F09FFB002875
:1064B80068D004F11408404602F09EF9002869D01B
:1064C800404602F075FA0546002840F09E80A36811
:1064D800FBB1636893F83820DAB11A780135082AD5
:1064E80050D8DFE802F046463D3434272727050018
:1064F80003F134025968404602F064FD10BBA368FA
:106508009D4206D2636803EB851393F83820002A6E
:10651800E3D13B463246404602F00AFE94F8783012
:10652800002B76D0012B2DD120461AB0BDE8F047BC
:10653800FFF72CBC03F134025968404602F0CAFD4B
:106548000028DCD00B9000F077FA0B981DE003F1DF
:1065580034025968404602F091FD0028CFD0F1E797
:1065680003F134025968404602F058FD0028C6D0AD
:10657800E8E703F134025968404602F0EDF90028D3
:10658800BDD0DFE700F058FA01201AB0BDE8F08767
:106598000B207047404602F035F900283FD10CAD7A
:1065A8000CA802F017F9C646D4F810900DF1100C9B
:1065B8000FCDAEE80F000FCDAEE80F000FCDAEE85F
:1065C8000F002B68CEF80030A56CD4F84CA0D4F896
:1065D80058E0B9E80F00ACE80F00D9F800002946E8
:1065E80053467246CCF80000404625680395E56D91
:1065F8000295656D0195256D009502F04BFC00280C
:106608003FF45EAF00F018FA5AE700F015FA284692
:10661800BBE720461AB0BDE8F047FFF7FBBC00F027
:106628000BFABCE7034640B10022026010465A60EC
:106638009A60DA601A615A6170470B20704700BF90
:10664800034678B1002209205963187010465A7021
:106658005A609A609A62DA621A6383F8382083F87B
:10666800392070470B207047002B3DD000283BD0C5
:106678002DE9F0431D4689B09146884608AF064685
:1066880000F0A4FD05F10C0347F8040D93E803009E
:106698008DE80300384695E80E0000F099FD0446A1
:1066A800E0B93868344602AF44F8080B384600F0C1
:1066B8008DFA97E80F0084E80F00234649464046C4
:1066C800324600F073FC044640B9B5612A4606F12B
:1066D8001C01032001F0BCFB044610B100F0ACF92A
:1066E800204609B0BDE8F0830B207047002B18BF87
:1066F800002A2DE9F0430CBF012400248DB00029A5
:1067080008BF44F0010434BB28B302AF04461E4658
:106718001546384688460DF1140900F0B3FE97E88F
:10672800030084E80300484601F058F8384600F0B2
:10673800A9FECDF8009006F108032A4697E8030061
:1067480084E803002046414600F0A6FE044630B91E
:106758000DB0BDE8F0830B200DB0BDE8F08300F06C
:106768006BF900F069F920460DB0BDE8F08300BF71
:10677800002B18BF002A2DE9F0410CBF012400248A
:106788009EB0002908BF44F00104FCB9F0B10446EA
:106798000DF108080D461F46164601F0CFF9206096
:1067A800404601F0C5FA50220C494046FEF7E8FB86
:1067B8002046CDF800803B463246294601F0C4F910
:1067C800044638B920461EB0BDE8F0810B201EB043
:1067D800BDE8F08100F030F9F4E700BF00060020C2
:1067E80019B310B32DE9F041884688B0044616461F
:1067F8001F4601F01FFDD8F818E003AD2060BEE881
:106808000F000FC5DEF80030204608F1080208F135
:106818001C012B600E9BCDE90067029301F010FD6F
:10682800044620B908B0BDE8F0810B20704700F09D
:1068380003F9204608B0BDE8F08100BF08F0FCBEAF
:1068480009F0F8BB09F00EB809F004B870B4054DAA
:1068580006460FCD34462D680FC43046256070BCFF
:10686800704700BF2421002058B1036843B1436832
:1068780033B1C36823B18068003018BF0120704766
:10688800184670472DE9F04F0E4640F2FF3804468F
:1068980087B04FF4806130460AF030F980453146C0
:1068A80028BF804620464246C8F5806709F0E2FACC
:1068B800002339464A4804F8083004EB08050AF072
:1068C8001DF9874200F28A8040F2FF34C8EB0404C5
:1068D8002246434928463F1BFEF752FB06F54078FF
:1068E8000023394640462B552C440AF007F98742C5
:1068F8000546414698BF07F1FF3520462A467F1BCB
:1069080009F0B8FA00233946364863552C440AF092
:10691800F5F887420546334998BF07F1FF35204609
:106928002A467F1BFEF72CFB06F57A73002604EB3C
:10693800050A6655D3E9004554EA050347D0E946F8
:10694800E846EB46204629460A22002308F0E8FCE0
:1069580002F1300E2046294600230A220BF801EBEB
:1069680008F0DEFC04460D46013654EA0503E9D179
:1069780006AB0024152148461E4406F8184C0AF0B8
:10698800BDF880B1421E0ED0484423464946013323
:10699800013A11F8014B10F8015C934208F8015BC9
:1069A80000F8014DF3D3394648460AF0A7F8874264
:1069B8000446494698BF07F1FF3450462246FEF781
:1069C800DFFA00230AF8043007B0BDE8F08F30235F
:1069D8008DF80160E9468DF80030E4E7044677E772
:1069E800541200205012002038B50E4B04461B7874
:1069F80053B10D4D2B7873B14FF480620B4920468B
:106A0800FEF7BEFA204638BD4FF480620849FEF70B
:106A1800B7FA204638BD07490448FFF733FF01237A
:106A28002B70E9E716310020153100209052002024
:106A3800500A00209056002000214FF47C7208482C
:106A480010B50C4609F07AFA064B4FF480620649F5
:106A580006481C70FEF794FA054B1C7010BD00BF69
:106A6800905600201531002050060020905200203A
:106A78001631002080B130B583B004460120694644
:106A8800FCF78AF90099002903DB019A06D1002A4C
:106A980004DA022003B030BD0B207047044D0020FB
:106AA800D317C5FB0123C4E9002303B030BD00BFE1
:106AB80000CA9A3B80B130B583B0044600206946CD
:106AC800FCF76AF90099002903DB019A06D1002A2C
:106AD80004DA022003B030BD0B207047044D0020BB
:106AE800D317C5FB0123C4E9002303B030BD00BFA1
:106AF80000CA9A3B02B10BB90B20704730B4044668
:106B0800029808B1039810B90B2030BC7047064DA5
:106B18000020EB60029B2C702B61039B6960AA60CC
:106B28006B6130BC704700BF805A002083681847EB
:106B380010B50446006809F047FD00280CBF204640
:106B4800002010BD10B1006800B1806E704700BF12
:106B5800F0B50E468DB00C460746964606AD0FCEEC
:106B68000FC596E8030085E8030057B33B6843B3B5
:106B7800986E30B3BEF1000F18D000210026002710
:106B880072468DF807100DF1070302A9CDE90267D7
:106B9800CDE9046703F060FD0646A8B99DF8072013
:106BA80040F2F513002A08BF1E4600E00B2606AD8A
:106BB8000FCD0FC495E8030084E8030030460DB0FC
:106BC800F0BD4FF4FA76F2E70126F0E7D0B4064BB1
:106BD800002600270446C3E902670FCB84E80F00AC
:106BE8002046D0BC704700BF1831002050B1083093
:106BF800052108B502F0E8FB51EA000314BF0120A3
:106C0800002008BD704700BF2DE9F043052187B07B
:106C18000646002208300023009102F009FC306883
:106C2800002856D04369D0F804800769002B4BD060
:106C3800143000F023FB8146002847D13068036BED
